{
  "contractName": "CryptoZombies",
  "abi": [
    {
      "anonymous": false,
      "inputs": [
        {
          "indexed": true,
          "internalType": "address",
          "name": "_owner",
          "type": "address"
        },
        {
          "indexed": true,
          "internalType": "address",
          "name": "_approved",
          "type": "address"
        },
        {
          "indexed": true,
          "internalType": "uint256",
          "name": "_tokenId",
          "type": "uint256"
        }
      ],
      "name": "Approval",
      "type": "event"
    },
    {
      "anonymous": false,
      "inputs": [
        {
          "indexed": false,
          "internalType": "uint256",
          "name": "zombieId",
          "type": "uint256"
        },
        {
          "indexed": false,
          "internalType": "string",
          "name": "name",
          "type": "string"
        },
        {
          "indexed": false,
          "internalType": "uint256",
          "name": "dna",
          "type": "uint256"
        }
      ],
      "name": "NewZombie",
      "type": "event"
    },
    {
      "anonymous": false,
      "inputs": [
        {
          "indexed": true,
          "internalType": "address",
          "name": "previousOwner",
          "type": "address"
        },
        {
          "indexed": true,
          "internalType": "address",
          "name": "newOwner",
          "type": "address"
        }
      ],
      "name": "OwnershipTransferred",
      "type": "event"
    },
    {
      "anonymous": false,
      "inputs": [
        {
          "indexed": true,
          "internalType": "address",
          "name": "_from",
          "type": "address"
        },
        {
          "indexed": true,
          "internalType": "address",
          "name": "_to",
          "type": "address"
        },
        {
          "indexed": true,
          "internalType": "uint256",
          "name": "_tokenId",
          "type": "uint256"
        }
      ],
      "name": "Transfer",
      "type": "event"
    },
    {
      "inputs": [
        {
          "internalType": "address",
          "name": "_approved",
          "type": "address"
        },
        {
          "internalType": "uint256",
          "name": "_tokenId",
          "type": "uint256"
        }
      ],
      "name": "approve",
      "outputs": [],
      "stateMutability": "payable",
      "type": "function"
    },
    {
      "inputs": [
        {
          "internalType": "uint256",
          "name": "_zombieId",
          "type": "uint256"
        },
        {
          "internalType": "uint256",
          "name": "_targetId",
          "type": "uint256"
        }
      ],
      "name": "attack",
      "outputs": [],
      "stateMutability": "nonpayable",
      "type": "function"
    },
    {
      "inputs": [
        {
          "internalType": "address",
          "name": "_owner",
          "type": "address"
        }
      ],
      "name": "balanceOf",
      "outputs": [
        {
          "internalType": "uint256",
          "name": "",
          "type": "uint256"
        }
      ],
      "stateMutability": "view",
      "type": "function"
    },
    {
      "inputs": [
        {
          "internalType": "uint256",
          "name": "_zombieId",
          "type": "uint256"
        },
        {
          "internalType": "uint256",
          "name": "_newDna",
          "type": "uint256"
        }
      ],
      "name": "changeDna",
      "outputs": [],
      "stateMutability": "nonpayable",
      "type": "function"
    },
    {
      "inputs": [
        {
          "internalType": "uint256",
          "name": "_zombieId",
          "type": "uint256"
        },
        {
          "internalType": "string",
          "name": "_newName",
          "type": "string"
        }
      ],
      "name": "changeName",
      "outputs": [],
      "stateMutability": "nonpayable",
      "type": "function"
    },
    {
      "inputs": [
        {
          "internalType": "string",
          "name": "_name",
          "type": "string"
        }
      ],
      "name": "createRandomZombie",
      "outputs": [],
      "stateMutability": "nonpayable",
      "type": "function"
    },
    {
      "inputs": [
        {
          "internalType": "uint256",
          "name": "_zombieId",
          "type": "uint256"
        },
        {
          "internalType": "uint256",
          "name": "_kittyId",
          "type": "uint256"
        }
      ],
      "name": "feedOnKitty",
      "outputs": [],
      "stateMutability": "nonpayable",
      "type": "function"
    },
    {
      "inputs": [
        {
          "internalType": "address",
          "name": "_owner",
          "type": "address"
        }
      ],
      "name": "getZombiesByOwner",
      "outputs": [
        {
          "internalType": "uint256[]",
          "name": "",
          "type": "uint256[]"
        }
      ],
      "stateMutability": "view",
      "type": "function"
    },
    {
      "inputs": [],
      "name": "isOwner",
      "outputs": [
        {
          "internalType": "bool",
          "name": "",
          "type": "bool"
        }
      ],
      "stateMutability": "view",
      "type": "function"
    },
    {
      "inputs": [
        {
          "internalType": "uint256",
          "name": "_zombieId",
          "type": "uint256"
        }
      ],
      "name": "levelUp",
      "outputs": [],
      "stateMutability": "payable",
      "type": "function"
    },
    {
      "inputs": [],
      "name": "owner",
      "outputs": [
        {
          "internalType": "address",
          "name": "",
          "type": "address"
        }
      ],
      "stateMutability": "view",
      "type": "function"
    },
    {
      "inputs": [
        {
          "internalType": "uint256",
          "name": "_tokenId",
          "type": "uint256"
        }
      ],
      "name": "ownerOf",
      "outputs": [
        {
          "internalType": "address",
          "name": "",
          "type": "address"
        }
      ],
      "stateMutability": "view",
      "type": "function"
    },
    {
      "inputs": [],
      "name": "renounceOwnership",
      "outputs": [],
      "stateMutability": "nonpayable",
      "type": "function"
    },
    {
      "inputs": [
        {
          "internalType": "address",
          "name": "_address",
          "type": "address"
        }
      ],
      "name": "setKittyContractAddress",
      "outputs": [],
      "stateMutability": "nonpayable",
      "type": "function"
    },
    {
      "inputs": [
        {
          "internalType": "uint256",
          "name": "_fee",
          "type": "uint256"
        }
      ],
      "name": "setLevelUpFee",
      "outputs": [],
      "stateMutability": "nonpayable",
      "type": "function"
    },
    {
      "inputs": [
        {
          "internalType": "address",
          "name": "_from",
          "type": "address"
        },
        {
          "internalType": "address",
          "name": "_to",
          "type": "address"
        },
        {
          "internalType": "uint256",
          "name": "_tokenId",
          "type": "uint256"
        }
      ],
      "name": "transferFrom",
      "outputs": [],
      "stateMutability": "payable",
      "type": "function"
    },
    {
      "inputs": [
        {
          "internalType": "address",
          "name": "newOwner",
          "type": "address"
        }
      ],
      "name": "transferOwnership",
      "outputs": [],
      "stateMutability": "nonpayable",
      "type": "function"
    },
    {
      "inputs": [],
      "name": "withdraw",
      "outputs": [],
      "stateMutability": "nonpayable",
      "type": "function"
    },
    {
      "inputs": [
        {
          "internalType": "uint256",
          "name": "",
          "type": "uint256"
        }
      ],
      "name": "zombieToOwner",
      "outputs": [
        {
          "internalType": "address",
          "name": "",
          "type": "address"
        }
      ],
      "stateMutability": "view",
      "type": "function"
    },
    {
      "inputs": [
        {
          "internalType": "uint256",
          "name": "",
          "type": "uint256"
        }
      ],
      "name": "zombies",
      "outputs": [
        {
          "internalType": "string",
          "name": "name",
          "type": "string"
        },
        {
          "internalType": "uint256",
          "name": "dna",
          "type": "uint256"
        },
        {
          "internalType": "uint32",
          "name": "level",
          "type": "uint32"
        },
        {
          "internalType": "uint32",
          "name": "readyTime",
          "type": "uint32"
        },
        {
          "internalType": "uint16",
          "name": "winCount",
          "type": "uint16"
        },
        {
          "internalType": "uint16",
          "name": "lossCount",
          "type": "uint16"
        }
      ],
      "stateMutability": "view",
      "type": "function"
    }
  ],
  "bytecode": "0x60806040526010600155600154600a6200001a919062000289565b6002556201518060035566038d7ea4c680006008555f6009556046600a5534801562000044575f80fd5b50335f806101000a81548173ffffffffffffffffffffffffffffffffffffffff021916908373ffffffffffffffffffffffffffffffffffffffff1602179055505f8054906101000a900473ffffffffffffffffffffffffffffffffffffffff1673ffffffffffffffffffffffffffffffffffffffff165f73ffffffffffffffffffffffffffffffffffffffff167f8be0079c531659141344cd1fd0a4f28419497f9722a3daafe3b4186f6b6457e060405160405180910390a3620002d9565b7f4e487b71000000000000000000000000000000000000000000000000000000005f52601160045260245ffd5b5f8160011c9050919050565b5f808291508390505b60018511156200018d5780860481111562000165576200016462000103565b5b6001851615620001755780820291505b8081029050620001858562000130565b945062000145565b94509492505050565b5f82620001a7576001905062000279565b81620001b6575f905062000279565b8160018114620001cf5760028114620001da5762000210565b600191505062000279565b60ff841115620001ef57620001ee62000103565b5b8360020a91508482111562000209576200020862000103565b5b5062000279565b5060208310610133831016604e8410600b84101617156200024a5782820a90508381111562000244576200024362000103565b5b62000279565b6200025984848460016200013c565b9250905081840481111562000273576200027262000103565b5b81810290505b9392505050565b5f819050919050565b5f620002958262000280565b9150620002a28362000280565b9250620002d17fffffffffffffffffffffffffffffffffffffffffffffffffffffffffffffffff848462000196565b905092915050565b61284d80620002e75f395ff3fe60806040526004361061011e575f3560e01c80636352211e1161009f5780638f32d59b116100635780638f32d59b1461039d578063c39cbef1146103c7578063ccf670f8146103ef578063e1fa763814610417578063f2fde38b1461043f5761011e565b80636352211e146102bd57806370a08231146102f9578063715018a6146103355780637bff0a011461034b5780638da5cb5b146103735761011e565b80633ccfd60b116100e65780633ccfd60b146101df5780634412e104146101f5578063528b7b8f146102315780635f4623f11461026d5780635faf2880146102955761011e565b8063095ea7b3146101225780630ce90ec21461013e57806317a7f4cc1461015a5780632052465e1461018257806323b872dd146101c3575b5f80fd5b61013c60048036038101906101379190611a02565b610467565b005b61015860048036038101906101539190611a40565b61057e565b005b348015610165575f80fd5b50610180600480360381019061017b9190611a6b565b61060d565b005b34801561018d575f80fd5b506101a860048036038101906101a39190611a40565b610727565b6040516101ba96959493929190611b7c565b60405180910390f35b6101dd60048036038101906101d89190611be2565b61082f565b005b3480156101ea575f80fd5b506101f361090c565b005b348015610200575f80fd5b5061021b60048036038101906102169190611c32565b61096e565b6040516102289190611d14565b60405180910390f35b34801561023c575f80fd5b5061025760048036038101906102529190611a40565b610ab9565b6040516102649190611d43565b60405180910390f35b348015610278575f80fd5b50610293600480360381019061028e9190611c32565b610ae9565b005b3480156102a0575f80fd5b506102bb60048036038101906102b69190611a6b565b610b3c565b005b3480156102c8575f80fd5b506102e360048036038101906102de9190611a40565b610c1a565b6040516102f09190611d43565b60405180910390f35b348015610304575f80fd5b5061031f600480360381019061031a9190611c32565b610c53565b60405161032c9190611d5c565b60405180910390f35b348015610340575f80fd5b50610349610c99565b005b348015610356575f80fd5b50610371600480360381019061036c9190611ea1565b610d63565b005b34801561037e575f80fd5b50610387610ddf565b6040516103949190611d43565b60405180910390f35b3480156103a8575f80fd5b506103b1610e06565b6040516103be9190611f02565b60405180910390f35b3480156103d2575f80fd5b506103ed60048036038101906103e89190611f78565b610e5b565b005b3480156103fa575f80fd5b5061041560048036038101906104109190611a40565b610f44565b005b348015610422575f80fd5b5061043d60048036038101906104389190611a6b565b610f5e565b005b34801561044a575f80fd5b5061046560048036038101906104609190611c32565b6111b2565b005b8060055f8281526020019081526020015f205f9054906101000a900473ffffffffffffffffffffffffffffffffffffffff1673ffffffffffffffffffffffffffffffffffffffff163373ffffffffffffffffffffffffffffffffffffffff16146104cf575f80fd5b82600b5f8481526020019081526020015f205f6101000a81548173ffffffffffffffffffffffffffffffffffffffff021916908373ffffffffffffffffffffffffffffffffffffffff160217905550818373ffffffffffffffffffffffffffffffffffffffff163373ffffffffffffffffffffffffffffffffffffffff167f8c5be1e5ebec7d5bd14f71427d1e84f3dd0314c0f7b2291e5b200ac8c7c3b92560405160405180910390a4505050565b600854341461058b575f80fd5b6001600482815481106105a1576105a0611fd5565b5b905f5260205f2090600302016002015f9054906101000a900463ffffffff166105ca919061202f565b600482815481106105de576105dd611fd5565b5b905f5260205f2090600302016002015f6101000a81548163ffffffff021916908363ffffffff16021790555050565b5f60075f9054906101000a900473ffffffffffffffffffffffffffffffffffffffff1673ffffffffffffffffffffffffffffffffffffffff1663e98b7f4d836040518263ffffffff1660e01b81526004016106689190611d5c565b61014060405180830381865afa158015610684573d5f803e3d5ffd5b505050506040513d601f19601f820116820180604052508101906106a891906120a4565b9091929394959697985090919293949596975090919293949596509091929394955090919293945090919293509091925090915090508091505061072283826040518060400160405280600581526020017f6b697474790000000000000000000000000000000000000000000000000000008152506111ce565b505050565b60048181548110610736575f80fd5b905f5260205f2090600302015f91509050805f018054610755906121aa565b80601f0160208091040260200160405190810160405280929190818152602001828054610781906121aa565b80156107cc5780601f106107a3576101008083540402835291602001916107cc565b820191905f5260205f20905b8154815290600101906020018083116107af57829003601f168201915b505050505090806001015490806002015f9054906101000a900463ffffffff16908060020160049054906101000a900463ffffffff16908060020160089054906101000a900461ffff169080600201600a9054906101000a900461ffff16905086565b3373ffffffffffffffffffffffffffffffffffffffff1660055f8381526020019081526020015f205f9054906101000a900473ffffffffffffffffffffffffffffffffffffffff1673ffffffffffffffffffffffffffffffffffffffff1614806108f457503373ffffffffffffffffffffffffffffffffffffffff16600b5f8381526020019081526020015f205f9054906101000a900473ffffffffffffffffffffffffffffffffffffffff1673ffffffffffffffffffffffffffffffffffffffff16145b6108fc575f80fd5b610907838383611361565b505050565b610914610e06565b61091c575f80fd5b5f610925610ddf565b90508073ffffffffffffffffffffffffffffffffffffffff166108fc4790811502906040515f60405180830381858888f1935050505015801561096a573d5f803e3d5ffd5b5050565b60605f60065f8473ffffffffffffffffffffffffffffffffffffffff1673ffffffffffffffffffffffffffffffffffffffff1681526020019081526020015f205467ffffffffffffffff8111156109c8576109c7611d7d565b5b6040519080825280602002602001820160405280156109f65781602001602082028036833780820191505090505b5090505f805b600480549050811015610aae578473ffffffffffffffffffffffffffffffffffffffff1660055f8381526020019081526020015f205f9054906101000a900473ffffffffffffffffffffffffffffffffffffffff1673ffffffffffffffffffffffffffffffffffffffff1603610a9b5780838381518110610a8057610a7f611fd5565b5b6020026020010181815250508180610a97906121da565b9250505b8080610aa6906121da565b9150506109fc565b508192505050919050565b6005602052805f5260405f205f915054906101000a900473ffffffffffffffffffffffffffffffffffffffff1681565b610af1610e06565b610af9575f80fd5b8060075f6101000a81548173ffffffffffffffffffffffffffffffffffffffff021916908373ffffffffffffffffffffffffffffffffffffffff16021790555050565b6014828160048281548110610b5457610b53611fd5565b5b905f5260205f2090600302016002015f9054906101000a900463ffffffff1663ffffffff161015610b83575f80fd5b8360055f8281526020019081526020015f205f9054906101000a900473ffffffffffffffffffffffffffffffffffffffff1673ffffffffffffffffffffffffffffffffffffffff163373ffffffffffffffffffffffffffffffffffffffff1614610beb575f80fd5b8360048681548110610c0057610bff611fd5565b5b905f5260205f209060030201600101819055505050505050565b5f60055f8381526020019081526020015f205f9054906101000a900473ffffffffffffffffffffffffffffffffffffffff169050919050565b5f60065f8373ffffffffffffffffffffffffffffffffffffffff1673ffffffffffffffffffffffffffffffffffffffff1681526020019081526020015f20549050919050565b610ca1610e06565b610ca9575f80fd5b5f73ffffffffffffffffffffffffffffffffffffffff165f8054906101000a900473ffffffffffffffffffffffffffffffffffffffff1673ffffffffffffffffffffffffffffffffffffffff167f8be0079c531659141344cd1fd0a4f28419497f9722a3daafe3b4186f6b6457e060405160405180910390a35f805f6101000a81548173ffffffffffffffffffffffffffffffffffffffff021916908373ffffffffffffffffffffffffffffffffffffffff160217905550565b5f60065f3373ffffffffffffffffffffffffffffffffffffffff1673ffffffffffffffffffffffffffffffffffffffff1681526020019081526020015f205414610dab575f80fd5b5f610db582611526565b9050606481610dc4919061224e565b81610dcf919061227e565b9050610ddb8282611569565b5050565b5f805f9054906101000a900473ffffffffffffffffffffffffffffffffffffffff16905090565b5f805f9054906101000a900473ffffffffffffffffffffffffffffffffffffffff1673ffffffffffffffffffffffffffffffffffffffff163373ffffffffffffffffffffffffffffffffffffffff1614905090565b6002838160048281548110610e7357610e72611fd5565b5b905f5260205f2090600302016002015f9054906101000a900463ffffffff1663ffffffff161015610ea2575f80fd5b8460055f8281526020019081526020015f205f9054906101000a900473ffffffffffffffffffffffffffffffffffffffff1673ffffffffffffffffffffffffffffffffffffffff163373ffffffffffffffffffffffffffffffffffffffff1614610f0a575f80fd5b848460048881548110610f2057610f1f611fd5565b5b905f5260205f2090600302015f019182610f3b929190612458565b50505050505050565b610f4c610e06565b610f54575f80fd5b8060088190555050565b8160055f8281526020019081526020015f205f9054906101000a900473ffffffffffffffffffffffffffffffffffffffff1673ffffffffffffffffffffffffffffffffffffffff163373ffffffffffffffffffffffffffffffffffffffff1614610fc6575f80fd5b5f60048481548110610fdb57610fda611fd5565b5b905f5260205f20906003020190505f60048481548110610ffe57610ffd611fd5565b5b905f5260205f20906003020190505f61101760646117c2565b9050600a5481116111265760018360020160089054906101000a900461ffff166110419190612525565b8360020160086101000a81548161ffff021916908361ffff1602179055506001836002015f9054906101000a900463ffffffff1661107f919061202f565b836002015f6101000a81548163ffffffff021916908363ffffffff160217905550600182600201600a9054906101000a900461ffff166110bf9190612525565b82600201600a6101000a81548161ffff021916908361ffff1602179055506111218683600101546040518060400160405280600681526020017f7a6f6d62696500000000000000000000000000000000000000000000000000008152506111ce565b6111aa565b600183600201600a9054906101000a900461ffff166111459190612525565b83600201600a6101000a81548161ffff021916908361ffff16021790555060018260020160089054906101000a900461ffff166111829190612525565b8260020160086101000a81548161ffff021916908361ffff1602179055506111a983611819565b5b505050505050565b6111ba610e06565b6111c2575f80fd5b6111cb8161184c565b50565b8260055f8281526020019081526020015f205f9054906101000a900473ffffffffffffffffffffffffffffffffffffffff1673ffffffffffffffffffffffffffffffffffffffff163373ffffffffffffffffffffffffffffffffffffffff1614611236575f80fd5b5f6004858154811061124b5761124a611fd5565b5b905f5260205f20906003020190506112628161193e565b61126a575f80fd5b60025484611278919061224e565b93505f600285836001015461128d919061255a565b611297919061258d565b90506040516020016112a890612611565b60405160208183030381529060405280519060200120846040516020016112cf9190612655565b60405160208183030381529060405280519060200120036113115760636064826112f9919061224e565b82611304919061227e565b61130e919061255a565b90505b6113506040518060400160405280600681526020017f4e6f4e616d65000000000000000000000000000000000000000000000000000081525082611569565b61135982611819565b505050505050565b600160065f8473ffffffffffffffffffffffffffffffffffffffff1673ffffffffffffffffffffffffffffffffffffffff1681526020019081526020015f20546113ab919061255a565b60065f8473ffffffffffffffffffffffffffffffffffffffff1673ffffffffffffffffffffffffffffffffffffffff1681526020019081526020015f2081905550600160065f3373ffffffffffffffffffffffffffffffffffffffff1673ffffffffffffffffffffffffffffffffffffffff1681526020019081526020015f2054611436919061227e565b60065f3373ffffffffffffffffffffffffffffffffffffffff1673ffffffffffffffffffffffffffffffffffffffff1681526020019081526020015f20819055508160055f8381526020019081526020015f205f6101000a81548173ffffffffffffffffffffffffffffffffffffffff021916908373ffffffffffffffffffffffffffffffffffffffff160217905550808273ffffffffffffffffffffffffffffffffffffffff168473ffffffffffffffffffffffffffffffffffffffff167fddf252ad1be2c89b69c2b068fc378daa952ba7f163c4a11628f55a4df523b3ef60405160405180910390a4505050565b5f80826040516020016115399190612655565b604051602081830303815290604052805190602001205f1c905060025481611561919061224e565b915050919050565b60046040518060c00160405280848152602001838152602001600163ffffffff1681526020016003544261159d919061255a565b63ffffffff1681526020015f61ffff1681526020015f61ffff16815250908060018154018082558091505060019003905f5260205f2090600302015f909190919091505f820151815f0190816115f3919061266b565b50602082015181600101556040820151816002015f6101000a81548163ffffffff021916908363ffffffff16021790555060608201518160020160046101000a81548163ffffffff021916908363ffffffff16021790555060808201518160020160086101000a81548161ffff021916908361ffff16021790555060a082015181600201600a6101000a81548161ffff021916908361ffff16021790555050505f60016004805490506116a6919061227e565b90503360055f8381526020019081526020015f205f6101000a81548173ffffffffffffffffffffffffffffffffffffffff021916908373ffffffffffffffffffffffffffffffffffffffff160217905550600160065f3373ffffffffffffffffffffffffffffffffffffffff1673ffffffffffffffffffffffffffffffffffffffff1681526020019081526020015f2054611741919061255a565b60065f3373ffffffffffffffffffffffffffffffffffffffff1673ffffffffffffffffffffffffffffffffffffffff1681526020019081526020015f20819055507f88f026aacbbecc90c18411df4b1185fd8d9be2470f1962f192bf84a27d0704b78184846040516117b59392919061273a565b60405180910390a1505050565b5f60016009546117d2919061255a565b6009819055508142336009546040516020016117f0939291906127db565b604051602081830303815290604052805190602001205f1c611812919061224e565b9050919050565b60035442611827919061255a565b8160020160046101000a81548163ffffffff021916908363ffffffff16021790555050565b5f73ffffffffffffffffffffffffffffffffffffffff168173ffffffffffffffffffffffffffffffffffffffff1603611883575f80fd5b8073ffffffffffffffffffffffffffffffffffffffff165f8054906101000a900473ffffffffffffffffffffffffffffffffffffffff1673ffffffffffffffffffffffffffffffffffffffff167f8be0079c531659141344cd1fd0a4f28419497f9722a3daafe3b4186f6b6457e060405160405180910390a3805f806101000a81548173ffffffffffffffffffffffffffffffffffffffff021916908373ffffffffffffffffffffffffffffffffffffffff16021790555050565b5f428260020160049054906101000a900463ffffffff1663ffffffff1611159050919050565b5f604051905090565b5f80fd5b5f80fd5b5f73ffffffffffffffffffffffffffffffffffffffff82169050919050565b5f61199e82611975565b9050919050565b6119ae81611994565b81146119b8575f80fd5b50565b5f813590506119c9816119a5565b92915050565b5f819050919050565b6119e1816119cf565b81146119eb575f80fd5b50565b5f813590506119fc816119d8565b92915050565b5f8060408385031215611a1857611a1761196d565b5b5f611a25858286016119bb565b9250506020611a36858286016119ee565b9150509250929050565b5f60208284031215611a5557611a5461196d565b5b5f611a62848285016119ee565b91505092915050565b5f8060408385031215611a8157611a8061196d565b5b5f611a8e858286016119ee565b9250506020611a9f858286016119ee565b9150509250929050565b5f81519050919050565b5f82825260208201905092915050565b5f5b83811015611ae0578082015181840152602081019050611ac5565b5f8484015250505050565b5f601f19601f8301169050919050565b5f611b0582611aa9565b611b0f8185611ab3565b9350611b1f818560208601611ac3565b611b2881611aeb565b840191505092915050565b611b3c816119cf565b82525050565b5f63ffffffff82169050919050565b611b5a81611b42565b82525050565b5f61ffff82169050919050565b611b7681611b60565b82525050565b5f60c0820190508181035f830152611b948189611afb565b9050611ba36020830188611b33565b611bb06040830187611b51565b611bbd6060830186611b51565b611bca6080830185611b6d565b611bd760a0830184611b6d565b979650505050505050565b5f805f60608486031215611bf957611bf861196d565b5b5f611c06868287016119bb565b9350506020611c17868287016119bb565b9250506040611c28868287016119ee565b9150509250925092565b5f60208284031215611c4757611c4661196d565b5b5f611c54848285016119bb565b91505092915050565b5f81519050919050565b5f82825260208201905092915050565b5f819050602082019050919050565b611c8f816119cf565b82525050565b5f611ca08383611c86565b60208301905092915050565b5f602082019050919050565b5f611cc282611c5d565b611ccc8185611c67565b9350611cd783611c77565b805f5b83811015611d07578151611cee8882611c95565b9750611cf983611cac565b925050600181019050611cda565b5085935050505092915050565b5f6020820190508181035f830152611d2c8184611cb8565b905092915050565b611d3d81611994565b82525050565b5f602082019050611d565f830184611d34565b92915050565b5f602082019050611d6f5f830184611b33565b92915050565b5f80fd5b5f80fd5b7f4e487b71000000000000000000000000000000000000000000000000000000005f52604160045260245ffd5b611db382611aeb565b810181811067ffffffffffffffff82111715611dd257611dd1611d7d565b5b80604052505050565b5f611de4611964565b9050611df08282611daa565b919050565b5f67ffffffffffffffff821115611e0f57611e0e611d7d565b5b611e1882611aeb565b9050602081019050919050565b828183375f83830152505050565b5f611e45611e4084611df5565b611ddb565b905082815260208101848484011115611e6157611e60611d79565b5b611e6c848285611e25565b509392505050565b5f82601f830112611e8857611e87611d75565b5b8135611e98848260208601611e33565b91505092915050565b5f60208284031215611eb657611eb561196d565b5b5f82013567ffffffffffffffff811115611ed357611ed2611971565b5b611edf84828501611e74565b91505092915050565b5f8115159050919050565b611efc81611ee8565b82525050565b5f602082019050611f155f830184611ef3565b92915050565b5f80fd5b5f80fd5b5f8083601f840112611f3857611f37611d75565b5b8235905067ffffffffffffffff811115611f5557611f54611f1b565b5b602083019150836001820283011115611f7157611f70611f1f565b5b9250929050565b5f805f60408486031215611f8f57611f8e61196d565b5b5f611f9c868287016119ee565b935050602084013567ffffffffffffffff811115611fbd57611fbc611971565b5b611fc986828701611f23565b92509250509250925092565b7f4e487b71000000000000000000000000000000000000000000000000000000005f52603260045260245ffd5b7f4e487b71000000000000000000000000000000000000000000000000000000005f52601160045260245ffd5b5f61203982611b42565b915061204483611b42565b9250828201905063ffffffff8111156120605761205f612002565b5b92915050565b61206f81611ee8565b8114612079575f80fd5b50565b5f8151905061208a81612066565b92915050565b5f8151905061209e816119d8565b92915050565b5f805f805f805f805f806101408b8d0312156120c3576120c261196d565b5b5f6120d08d828e0161207c565b9a505060206120e18d828e0161207c565b99505060406120f28d828e01612090565b98505060606121038d828e01612090565b97505060806121148d828e01612090565b96505060a06121258d828e01612090565b95505060c06121368d828e01612090565b94505060e06121478d828e01612090565b9350506101006121598d828e01612090565b92505061012061216b8d828e01612090565b9150509295989b9194979a5092959850565b7f4e487b71000000000000000000000000000000000000000000000000000000005f52602260045260245ffd5b5f60028204905060018216806121c157607f821691505b6020821081036121d4576121d361217d565b5b50919050565b5f6121e4826119cf565b91507fffffffffffffffffffffffffffffffffffffffffffffffffffffffffffffffff820361221657612215612002565b5b600182019050919050565b7f4e487b71000000000000000000000000000000000000000000000000000000005f52601260045260245ffd5b5f612258826119cf565b9150612263836119cf565b92508261227357612272612221565b5b828206905092915050565b5f612288826119cf565b9150612293836119cf565b92508282039050818111156122ab576122aa612002565b5b92915050565b5f82905092915050565b5f819050815f5260205f209050919050565b5f6020601f8301049050919050565b5f82821b905092915050565b5f600883026123177fffffffffffffffffffffffffffffffffffffffffffffffffffffffffffffffff826122dc565b61232186836122dc565b95508019841693508086168417925050509392505050565b5f819050919050565b5f61235c612357612352846119cf565b612339565b6119cf565b9050919050565b5f819050919050565b61237583612342565b61238961238182612363565b8484546122e8565b825550505050565b5f90565b61239d612391565b6123a881848461236c565b505050565b5b818110156123cb576123c05f82612395565b6001810190506123ae565b5050565b601f821115612410576123e1816122bb565b6123ea846122cd565b810160208510156123f9578190505b61240d612405856122cd565b8301826123ad565b50505b505050565b5f82821c905092915050565b5f6124305f1984600802612415565b1980831691505092915050565b5f6124488383612421565b9150826002028217905092915050565b61246283836122b1565b67ffffffffffffffff81111561247b5761247a611d7d565b5b61248582546121aa565b6124908282856123cf565b5f601f8311600181146124bd575f84156124ab578287013590505b6124b5858261243d565b86555061251c565b601f1984166124cb866122bb565b5f5b828110156124f2578489013582556001820191506020850194506020810190506124cd565b8683101561250f578489013561250b601f891682612421565b8355505b6001600288020188555050505b50505050505050565b5f61252f82611b60565b915061253a83611b60565b9250828201905061ffff81111561255457612553612002565b5b92915050565b5f612564826119cf565b915061256f836119cf565b925082820190508082111561258757612586612002565b5b92915050565b5f612597826119cf565b91506125a2836119cf565b9250826125b2576125b1612221565b5b828204905092915050565b5f81905092915050565b7f6b697474790000000000000000000000000000000000000000000000000000005f82015250565b5f6125fb6005836125bd565b9150612606826125c7565b600582019050919050565b5f61261b826125ef565b9150819050919050565b5f61262f82611aa9565b61263981856125bd565b9350612649818560208601611ac3565b80840191505092915050565b5f6126608284612625565b915081905092915050565b61267482611aa9565b67ffffffffffffffff81111561268d5761268c611d7d565b5b61269782546121aa565b6126a28282856123cf565b5f60209050601f8311600181146126d3575f84156126c1578287015190505b6126cb858261243d565b865550612732565b601f1984166126e1866122bb565b5f5b82811015612708578489015182556001820191506020850194506020810190506126e3565b868310156127255784890151612721601f891682612421565b8355505b6001600288020188555050505b505050505050565b5f60608201905061274d5f830186611b33565b818103602083015261275f8185611afb565b905061276e6040830184611b33565b949350505050565b5f819050919050565b61279061278b826119cf565b612776565b82525050565b5f8160601b9050919050565b5f6127ac82612796565b9050919050565b5f6127bd826127a2565b9050919050565b6127d56127d082611994565b6127b3565b82525050565b5f6127e6828661277f565b6020820191506127f682856127c4565b601482019150612806828461277f565b60208201915081905094935050505056fea264697066735822122028c3f4f6a541f0312645387156140ea7af26e1ca9d4fb1286a7e358ec8ced7d764736f6c63430008150033",
  "immutableReferences": {},
  "source": "// SPDX-License-Identifier: MIT\n\npragma solidity ^0.8.9;\n\nimport \"./zombieownership.sol\";\n\ncontract CryptoZombies is ZombieOwnership\n    {\n\n    }",
  "sourcePath": "/Users/agnieszkaskrobot/Desktop/projects/CryptoZombies/contracts/CryptoZombies.sol",
  "compiler": {
    "name": "solc",
    "version": "0.8.21+commit.d9974bed.Emscripten.clang"
  },
  "schemaVersion": "3.4.16",
  "updatedAt": "2023-10-10T11:08:47.664Z",
  "devdoc": {
    "kind": "dev",
    "methods": {
      "isOwner()": {
        "returns": {
          "_0": "true if `msg.sender` is the owner of the contract."
        }
      },
      "owner()": {
        "returns": {
          "_0": "the address of the owner."
        }
      },
      "renounceOwnership()": {
        "details": "Allows the current owner to relinquish control of the contract."
      },
      "transferOwnership(address)": {
        "details": "Allows the current owner to transfer control of the contract to a newOwner.",
        "params": {
          "newOwner": "The address to transfer ownership to."
        }
      }
    },
    "version": 1
  },
  "userdoc": {
    "kind": "user",
    "methods": {
      "renounceOwnership()": {
        "notice": "Renouncing to ownership will leave the contract without an owner. It will not be possible to call the functions with the `onlyOwner` modifier anymore."
      }
    },
    "version": 1
  }
}