{
  "contractName": "ZombieHelper",
  "abi": [
    {
      "anonymous": false,
      "inputs": [
        {
          "indexed": false,
          "internalType": "uint256",
          "name": "zombieId",
          "type": "uint256"
        },
        {
          "indexed": false,
          "internalType": "string",
          "name": "name",
          "type": "string"
        },
        {
          "indexed": false,
          "internalType": "uint256",
          "name": "dna",
          "type": "uint256"
        }
      ],
      "name": "NewZombie",
      "type": "event"
    },
    {
      "anonymous": false,
      "inputs": [
        {
          "indexed": true,
          "internalType": "address",
          "name": "previousOwner",
          "type": "address"
        },
        {
          "indexed": true,
          "internalType": "address",
          "name": "newOwner",
          "type": "address"
        }
      ],
      "name": "OwnershipTransferred",
      "type": "event"
    },
    {
      "inputs": [
        {
          "internalType": "string",
          "name": "_name",
          "type": "string"
        }
      ],
      "name": "createRandomZombie",
      "outputs": [],
      "stateMutability": "nonpayable",
      "type": "function"
    },
    {
      "inputs": [
        {
          "internalType": "uint256",
          "name": "_zombieId",
          "type": "uint256"
        },
        {
          "internalType": "uint256",
          "name": "_kittyId",
          "type": "uint256"
        }
      ],
      "name": "feedOnKitty",
      "outputs": [],
      "stateMutability": "nonpayable",
      "type": "function"
    },
    {
      "inputs": [],
      "name": "isOwner",
      "outputs": [
        {
          "internalType": "bool",
          "name": "",
          "type": "bool"
        }
      ],
      "stateMutability": "view",
      "type": "function"
    },
    {
      "inputs": [],
      "name": "owner",
      "outputs": [
        {
          "internalType": "address",
          "name": "",
          "type": "address"
        }
      ],
      "stateMutability": "view",
      "type": "function"
    },
    {
      "inputs": [],
      "name": "renounceOwnership",
      "outputs": [],
      "stateMutability": "nonpayable",
      "type": "function"
    },
    {
      "inputs": [
        {
          "internalType": "address",
          "name": "_address",
          "type": "address"
        }
      ],
      "name": "setKittyContractAddress",
      "outputs": [],
      "stateMutability": "nonpayable",
      "type": "function"
    },
    {
      "inputs": [
        {
          "internalType": "address",
          "name": "newOwner",
          "type": "address"
        }
      ],
      "name": "transferOwnership",
      "outputs": [],
      "stateMutability": "nonpayable",
      "type": "function"
    },
    {
      "inputs": [
        {
          "internalType": "uint256",
          "name": "",
          "type": "uint256"
        }
      ],
      "name": "zombieToOwner",
      "outputs": [
        {
          "internalType": "address",
          "name": "",
          "type": "address"
        }
      ],
      "stateMutability": "view",
      "type": "function"
    },
    {
      "inputs": [
        {
          "internalType": "uint256",
          "name": "",
          "type": "uint256"
        }
      ],
      "name": "zombies",
      "outputs": [
        {
          "internalType": "string",
          "name": "name",
          "type": "string"
        },
        {
          "internalType": "uint256",
          "name": "dna",
          "type": "uint256"
        },
        {
          "internalType": "uint32",
          "name": "level",
          "type": "uint32"
        },
        {
          "internalType": "uint32",
          "name": "readyTime",
          "type": "uint32"
        },
        {
          "internalType": "uint16",
          "name": "winCount",
          "type": "uint16"
        },
        {
          "internalType": "uint16",
          "name": "lossCount",
          "type": "uint16"
        }
      ],
      "stateMutability": "view",
      "type": "function"
    },
    {
      "inputs": [],
      "name": "withdraw",
      "outputs": [],
      "stateMutability": "nonpayable",
      "type": "function"
    },
    {
      "inputs": [
        {
          "internalType": "uint256",
          "name": "_fee",
          "type": "uint256"
        }
      ],
      "name": "setLevelUpFee",
      "outputs": [],
      "stateMutability": "nonpayable",
      "type": "function"
    },
    {
      "inputs": [
        {
          "internalType": "uint256",
          "name": "_zombieId",
          "type": "uint256"
        }
      ],
      "name": "levelUp",
      "outputs": [],
      "stateMutability": "payable",
      "type": "function"
    },
    {
      "inputs": [
        {
          "internalType": "uint256",
          "name": "_zombieId",
          "type": "uint256"
        },
        {
          "internalType": "string",
          "name": "_newName",
          "type": "string"
        }
      ],
      "name": "changeName",
      "outputs": [],
      "stateMutability": "nonpayable",
      "type": "function"
    },
    {
      "inputs": [
        {
          "internalType": "uint256",
          "name": "_zombieId",
          "type": "uint256"
        },
        {
          "internalType": "uint256",
          "name": "_newDna",
          "type": "uint256"
        }
      ],
      "name": "changeDna",
      "outputs": [],
      "stateMutability": "nonpayable",
      "type": "function"
    },
    {
      "inputs": [
        {
          "internalType": "address",
          "name": "_owner",
          "type": "address"
        }
      ],
      "name": "getZombiesByOwner",
      "outputs": [
        {
          "internalType": "uint256[]",
          "name": "",
          "type": "uint256[]"
        }
      ],
      "stateMutability": "view",
      "type": "function"
    }
  ],
  "bytecode": "0x60806040526010600155600154600a6200001a91906200028b565b6002556201518060035566038d7ea4c680006008553480156200003c57600080fd5b50336000806101000a81548173ffffffffffffffffffffffffffffffffffffffff021916908373ffffffffffffffffffffffffffffffffffffffff16021790555060008054906101000a900473ffffffffffffffffffffffffffffffffffffffff1673ffffffffffffffffffffffffffffffffffffffff16600073ffffffffffffffffffffffffffffffffffffffff167f8be0079c531659141344cd1fd0a4f28419497f9722a3daafe3b4186f6b6457e060405160405180910390a3620002dc565b7f4e487b7100000000000000000000000000000000000000000000000000000000600052601160045260246000fd5b60008160011c9050919050565b6000808291508390505b60018511156200018c57808604811115620001645762000163620000fe565b5b6001851615620001745780820291505b808102905062000184856200012d565b945062000144565b94509492505050565b600082620001a757600190506200027a565b81620001b757600090506200027a565b8160018114620001d05760028114620001db5762000211565b60019150506200027a565b60ff841115620001f057620001ef620000fe565b5b8360020a9150848211156200020a5762000209620000fe565b5b506200027a565b5060208310610133831016604e8410600b84101617156200024b5782820a905083811115620002455762000244620000fe565b5b6200027a565b6200025a84848460016200013a565b92509050818404811115620002745762000273620000fe565b5b81810290505b9392505050565b6000819050919050565b6000620002988262000281565b9150620002a58362000281565b9250620002d47fffffffffffffffffffffffffffffffffffffffffffffffffffffffffffffffff848462000195565b905092915050565b611de580620002ec6000396000f3fe6080604052600436106100e85760003560e01c80635faf28801161008a5780638f32d59b116100595780638f32d59b146102c2578063c39cbef1146102ed578063ccf670f814610316578063f2fde38b1461033f576100e8565b80635faf28801461022e578063715018a6146102575780637bff0a011461026e5780638da5cb5b14610297576100e8565b80633ccfd60b116100c65780633ccfd60b146101745780634412e1041461018b578063528b7b8f146101c85780635f4623f114610205576100e8565b80630ce90ec2146100ed57806317a7f4cc146101095780632052465e14610132575b600080fd5b61010760048036038101906101029190611365565b610368565b005b34801561011557600080fd5b50610130600480360381019061012b9190611392565b6103fe565b005b34801561013e57600080fd5b5061015960048036038101906101549190611365565b61051c565b60405161016b969594939291906114b6565b60405180910390f35b34801561018057600080fd5b5061018961062c565b005b34801561019757600080fd5b506101b260048036038101906101ad919061157c565b610693565b6040516101bf9190611667565b60405180910390f35b3480156101d457600080fd5b506101ef60048036038101906101ea9190611365565b6107e5565b6040516101fc9190611698565b60405180910390f35b34801561021157600080fd5b5061022c6004803603810190610227919061157c565b610818565b005b34801561023a57600080fd5b5061025560048036038101906102509190611392565b61086d565b005b34801561026357600080fd5b5061026c610955565b005b34801561027a57600080fd5b50610295600480360381019061029091906117e8565b610a24565b005b3480156102a357600080fd5b506102ac610aa5565b6040516102b99190611698565b60405180910390f35b3480156102ce57600080fd5b506102d7610ace565b6040516102e4919061184c565b60405180910390f35b3480156102f957600080fd5b50610314600480360381019061030f91906118c7565b610b25565b005b34801561032257600080fd5b5061033d60048036038101906103389190611365565b610c19565b005b34801561034b57600080fd5b506103666004803603810190610361919061157c565b610c34565b005b600854341461037657600080fd5b60016004828154811061038c5761038b611927565b5b906000526020600020906003020160020160009054906101000a900463ffffffff166103b89190611985565b600482815481106103cc576103cb611927565b5b906000526020600020906003020160020160006101000a81548163ffffffff021916908363ffffffff16021790555050565b6000600760009054906101000a900473ffffffffffffffffffffffffffffffffffffffff1673ffffffffffffffffffffffffffffffffffffffff1663e98b7f4d836040518263ffffffff1660e01b815260040161045b91906119bf565b61014060405180830381865afa158015610479573d6000803e3d6000fd5b505050506040513d601f19601f8201168201806040525081019061049d9190611a1b565b9091929394959697985090919293949596975090919293949596509091929394955090919293945090919293509091925090915090508091505061051783826040518060400160405280600581526020017f6b69747479000000000000000000000000000000000000000000000000000000815250610c51565b505050565b6004818154811061052c57600080fd5b906000526020600020906003020160009150905080600001805461054f90611b29565b80601f016020809104026020016040519081016040528092919081815260200182805461057b90611b29565b80156105c85780601f1061059d576101008083540402835291602001916105c8565b820191906000526020600020905b8154815290600101906020018083116105ab57829003601f168201915b5050505050908060010154908060020160009054906101000a900463ffffffff16908060020160049054906101000a900463ffffffff16908060020160089054906101000a900461ffff169080600201600a9054906101000a900461ffff16905086565b610634610ace565b61063d57600080fd5b6000610647610aa5565b90508073ffffffffffffffffffffffffffffffffffffffff166108fc479081150290604051600060405180830381858888f1935050505015801561068f573d6000803e3d6000fd5b5050565b60606000600660008473ffffffffffffffffffffffffffffffffffffffff1673ffffffffffffffffffffffffffffffffffffffff1681526020019081526020016000205467ffffffffffffffff8111156106f0576106ef6116bd565b5b60405190808252806020026020018201604052801561071e5781602001602082028036833780820191505090505b5090506000805b6004805490508110156107da578473ffffffffffffffffffffffffffffffffffffffff166005600083815260200190815260200160002060009054906101000a900473ffffffffffffffffffffffffffffffffffffffff1673ffffffffffffffffffffffffffffffffffffffff16036107c757808383815181106107ac576107ab611927565b5b60200260200101818152505081806107c390611b5a565b9250505b80806107d290611b5a565b915050610725565b508192505050919050565b60056020528060005260406000206000915054906101000a900473ffffffffffffffffffffffffffffffffffffffff1681565b610820610ace565b61082957600080fd5b80600760006101000a81548173ffffffffffffffffffffffffffffffffffffffff021916908373ffffffffffffffffffffffffffffffffffffffff16021790555050565b601482816004828154811061088557610884611927565b5b906000526020600020906003020160020160009054906101000a900463ffffffff1663ffffffff1610156108b857600080fd5b836005600082815260200190815260200160002060009054906101000a900473ffffffffffffffffffffffffffffffffffffffff1673ffffffffffffffffffffffffffffffffffffffff163373ffffffffffffffffffffffffffffffffffffffff161461092457600080fd5b836004868154811061093957610938611927565b5b9060005260206000209060030201600101819055505050505050565b61095d610ace565b61096657600080fd5b600073ffffffffffffffffffffffffffffffffffffffff1660008054906101000a900473ffffffffffffffffffffffffffffffffffffffff1673ffffffffffffffffffffffffffffffffffffffff167f8be0079c531659141344cd1fd0a4f28419497f9722a3daafe3b4186f6b6457e060405160405180910390a360008060006101000a81548173ffffffffffffffffffffffffffffffffffffffff021916908373ffffffffffffffffffffffffffffffffffffffff160217905550565b6000600660003373ffffffffffffffffffffffffffffffffffffffff1673ffffffffffffffffffffffffffffffffffffffff1681526020019081526020016000205414610a7057600080fd5b6000610a7b82610ded565b9050606481610a8a9190611bd1565b81610a959190611c02565b9050610aa18282610e32565b5050565b60008060009054906101000a900473ffffffffffffffffffffffffffffffffffffffff16905090565b60008060009054906101000a900473ffffffffffffffffffffffffffffffffffffffff1673ffffffffffffffffffffffffffffffffffffffff163373ffffffffffffffffffffffffffffffffffffffff1614905090565b6002838160048281548110610b3d57610b3c611927565b5b906000526020600020906003020160020160009054906101000a900463ffffffff1663ffffffff161015610b7057600080fd5b846005600082815260200190815260200160002060009054906101000a900473ffffffffffffffffffffffffffffffffffffffff1673ffffffffffffffffffffffffffffffffffffffff163373ffffffffffffffffffffffffffffffffffffffff1614610bdc57600080fd5b848460048881548110610bf257610bf1611927565b5b90600052602060002090600302016000019190610c109291906111f2565b50505050505050565b610c21610ace565b610c2a57600080fd5b8060088190555050565b610c3c610ace565b610c4557600080fd5b610c4e816110a2565b50565b826005600082815260200190815260200160002060009054906101000a900473ffffffffffffffffffffffffffffffffffffffff1673ffffffffffffffffffffffffffffffffffffffff163373ffffffffffffffffffffffffffffffffffffffff1614610cbd57600080fd5b600060048581548110610cd357610cd2611927565b5b90600052602060002090600302019050610cec81611198565b610cf557600080fd5b60025484610d039190611bd1565b935060006002858360010154610d199190611c36565b610d239190611c8c565b9050604051602001610d3490611d14565b6040516020818303038152906040528051906020012084604051602001610d5b9190611d5a565b6040516020818303038152906040528051906020012003610d9d576063606482610d859190611bd1565b82610d909190611c02565b610d9a9190611c36565b90505b610ddc6040518060400160405280600681526020017f4e6f4e616d65000000000000000000000000000000000000000000000000000081525082610e32565b610de5826111bf565b505050505050565b60008082604051602001610e019190611d5a565b6040516020818303038152906040528051906020012060001c905060025481610e2a9190611bd1565b915050919050565b60046040518060c00160405280848152602001838152602001600163ffffffff16815260200160035442610e669190611c36565b63ffffffff168152602001600061ffff168152602001600061ffff1681525090806001815401808255809150506001900390600052602060002090600302016000909190919091506000820151816000019080519060200190610eca929190611278565b506020820151816001015560408201518160020160006101000a81548163ffffffff021916908363ffffffff16021790555060608201518160020160046101000a81548163ffffffff021916908363ffffffff16021790555060808201518160020160086101000a81548161ffff021916908361ffff16021790555060a082015181600201600a6101000a81548161ffff021916908361ffff160217905550505060006001600480549050610f7f9190611c02565b9050336005600083815260200190815260200160002060006101000a81548173ffffffffffffffffffffffffffffffffffffffff021916908373ffffffffffffffffffffffffffffffffffffffff1602179055506001600660003373ffffffffffffffffffffffffffffffffffffffff1673ffffffffffffffffffffffffffffffffffffffff1681526020019081526020016000205461101f9190611c36565b600660003373ffffffffffffffffffffffffffffffffffffffff1673ffffffffffffffffffffffffffffffffffffffff168152602001908152602001600020819055507f88f026aacbbecc90c18411df4b1185fd8d9be2470f1962f192bf84a27d0704b781848460405161109593929190611d71565b60405180910390a1505050565b600073ffffffffffffffffffffffffffffffffffffffff168173ffffffffffffffffffffffffffffffffffffffff16036110db57600080fd5b8073ffffffffffffffffffffffffffffffffffffffff1660008054906101000a900473ffffffffffffffffffffffffffffffffffffffff1673ffffffffffffffffffffffffffffffffffffffff167f8be0079c531659141344cd1fd0a4f28419497f9722a3daafe3b4186f6b6457e060405160405180910390a3806000806101000a81548173ffffffffffffffffffffffffffffffffffffffff021916908373ffffffffffffffffffffffffffffffffffffffff16021790555050565b6000428260020160049054906101000a900463ffffffff1663ffffffff1611159050919050565b600354426111cd9190611c36565b8160020160046101000a81548163ffffffff021916908363ffffffff16021790555050565b8280546111fe90611b29565b90600052602060002090601f0160209004810192826112205760008555611267565b82601f1061123957803560ff1916838001178555611267565b82800160010185558215611267579182015b8281111561126657823582559160200191906001019061124b565b5b50905061127491906112fe565b5090565b82805461128490611b29565b90600052602060002090601f0160209004810192826112a657600085556112ed565b82601f106112bf57805160ff19168380011785556112ed565b828001600101855582156112ed579182015b828111156112ec5782518255916020019190600101906112d1565b5b5090506112fa91906112fe565b5090565b5b808211156113175760008160009055506001016112ff565b5090565b6000604051905090565b600080fd5b600080fd5b6000819050919050565b6113428161132f565b811461134d57600080fd5b50565b60008135905061135f81611339565b92915050565b60006020828403121561137b5761137a611325565b5b600061138984828501611350565b91505092915050565b600080604083850312156113a9576113a8611325565b5b60006113b785828601611350565b92505060206113c885828601611350565b9150509250929050565b600081519050919050565b600082825260208201905092915050565b60005b8381101561140c5780820151818401526020810190506113f1565b8381111561141b576000848401525b50505050565b6000601f19601f8301169050919050565b600061143d826113d2565b61144781856113dd565b93506114578185602086016113ee565b61146081611421565b840191505092915050565b6114748161132f565b82525050565b600063ffffffff82169050919050565b6114938161147a565b82525050565b600061ffff82169050919050565b6114b081611499565b82525050565b600060c08201905081810360008301526114d08189611432565b90506114df602083018861146b565b6114ec604083018761148a565b6114f9606083018661148a565b61150660808301856114a7565b61151360a08301846114a7565b979650505050505050565b600073ffffffffffffffffffffffffffffffffffffffff82169050919050565b60006115498261151e565b9050919050565b6115598161153e565b811461156457600080fd5b50565b60008135905061157681611550565b92915050565b60006020828403121561159257611591611325565b5b60006115a084828501611567565b91505092915050565b600081519050919050565b600082825260208201905092915050565b6000819050602082019050919050565b6115de8161132f565b82525050565b60006115f083836115d5565b60208301905092915050565b6000602082019050919050565b6000611614826115a9565b61161e81856115b4565b9350611629836115c5565b8060005b8381101561165a57815161164188826115e4565b975061164c836115fc565b92505060018101905061162d565b5085935050505092915050565b600060208201905081810360008301526116818184611609565b905092915050565b6116928161153e565b82525050565b60006020820190506116ad6000830184611689565b92915050565b600080fd5b600080fd5b7f4e487b7100000000000000000000000000000000000000000000000000000000600052604160045260246000fd5b6116f582611421565b810181811067ffffffffffffffff82111715611714576117136116bd565b5b80604052505050565b600061172761131b565b905061173382826116ec565b919050565b600067ffffffffffffffff821115611753576117526116bd565b5b61175c82611421565b9050602081019050919050565b82818337600083830152505050565b600061178b61178684611738565b61171d565b9050828152602081018484840111156117a7576117a66116b8565b5b6117b2848285611769565b509392505050565b600082601f8301126117cf576117ce6116b3565b5b81356117df848260208601611778565b91505092915050565b6000602082840312156117fe576117fd611325565b5b600082013567ffffffffffffffff81111561181c5761181b61132a565b5b611828848285016117ba565b91505092915050565b60008115159050919050565b61184681611831565b82525050565b6000602082019050611861600083018461183d565b92915050565b600080fd5b600080fd5b60008083601f840112611887576118866116b3565b5b8235905067ffffffffffffffff8111156118a4576118a3611867565b5b6020830191508360018202830111156118c0576118bf61186c565b5b9250929050565b6000806000604084860312156118e0576118df611325565b5b60006118ee86828701611350565b935050602084013567ffffffffffffffff81111561190f5761190e61132a565b5b61191b86828701611871565b92509250509250925092565b7f4e487b7100000000000000000000000000000000000000000000000000000000600052603260045260246000fd5b7f4e487b7100000000000000000000000000000000000000000000000000000000600052601160045260246000fd5b60006119908261147a565b915061199b8361147a565b92508263ffffffff038211156119b4576119b3611956565b5b828201905092915050565b60006020820190506119d4600083018461146b565b92915050565b6119e381611831565b81146119ee57600080fd5b50565b600081519050611a00816119da565b92915050565b600081519050611a1581611339565b92915050565b6000806000806000806000806000806101408b8d031215611a3f57611a3e611325565b5b6000611a4d8d828e016119f1565b9a50506020611a5e8d828e016119f1565b9950506040611a6f8d828e01611a06565b9850506060611a808d828e01611a06565b9750506080611a918d828e01611a06565b96505060a0611aa28d828e01611a06565b95505060c0611ab38d828e01611a06565b94505060e0611ac48d828e01611a06565b935050610100611ad68d828e01611a06565b925050610120611ae88d828e01611a06565b9150509295989b9194979a5092959850565b7f4e487b7100000000000000000000000000000000000000000000000000000000600052602260045260246000fd5b60006002820490506001821680611b4157607f821691505b602082108103611b5457611b53611afa565b5b50919050565b6000611b658261132f565b91507fffffffffffffffffffffffffffffffffffffffffffffffffffffffffffffffff8203611b9757611b96611956565b5b600182019050919050565b7f4e487b7100000000000000000000000000000000000000000000000000000000600052601260045260246000fd5b6000611bdc8261132f565b9150611be78361132f565b925082611bf757611bf6611ba2565b5b828206905092915050565b6000611c0d8261132f565b9150611c188361132f565b925082821015611c2b57611c2a611956565b5b828203905092915050565b6000611c418261132f565b9150611c4c8361132f565b9250827fffffffffffffffffffffffffffffffffffffffffffffffffffffffffffffffff03821115611c8157611c80611956565b5b828201905092915050565b6000611c978261132f565b9150611ca28361132f565b925082611cb257611cb1611ba2565b5b828204905092915050565b600081905092915050565b7f6b69747479000000000000000000000000000000000000000000000000000000600082015250565b6000611cfe600583611cbd565b9150611d0982611cc8565b600582019050919050565b6000611d1f82611cf1565b9150819050919050565b6000611d34826113d2565b611d3e8185611cbd565b9350611d4e8185602086016113ee565b80840191505092915050565b6000611d668284611d29565b915081905092915050565b6000606082019050611d86600083018661146b565b8181036020830152611d988185611432565b9050611da7604083018461146b565b94935050505056fea2646970667358221220eb7ddd404cf2e0e3af5795d74331c78724643bcae8ac33ff8cfdf4299c2c952c64736f6c634300080d0033",
  "immutableReferences": {},
  "source": "// SPDX-License-Identifier: MIT\npragma solidity ^0.8.13;\n\nimport \"./zombiefeeding.sol\";\n\ncontract ZombieHelper is ZombieFeeding {\n    uint levelUpFee = 0.001 ether;\n\n    modifier aboveLevel(uint _level, uint _zombieId) {\n        require(zombies[_zombieId].level >= _level);\n        _;\n    }\n\n    function withdraw() external onlyOwner {\n        address payable _owner = payable(owner());\n        _owner.transfer(address(this).balance);\n    }\n\n    function setLevelUpFee(uint _fee) external onlyOwner {\n        levelUpFee = _fee;\n    }\n\n    function levelUp(uint _zombieId) external payable {\n        require(msg.value == levelUpFee);\n        zombies[_zombieId].level = zombies[_zombieId].level + 1;\n    }\n\n    function changeName(\n        uint _zombieId,\n        string calldata _newName\n    ) external aboveLevel(2, _zombieId) onlyOwnerOf(_zombieId) {\n        zombies[_zombieId].name = _newName;\n    }\n\n    function changeDna(\n        uint _zombieId,\n        uint _newDna\n    ) external aboveLevel(20, _zombieId) onlyOwnerOf(_zombieId) {\n        zombies[_zombieId].dna = _newDna;\n    }\n\n    function getZombiesByOwner(\n        address _owner\n    ) external view returns (uint[] memory) {\n        uint[] memory result = new uint[](ownerZombieCount[_owner]);\n        uint counter = 0;\n        for (uint i = 0; i < zombies.length; i++) {\n            if (zombieToOwner[i] == _owner) {\n                result[counter] = i;\n                counter++;\n            }\n        }\n        return result;\n    }\n}\n",
  "sourcePath": "/Users/agnieszkaskrobot/Desktop/projects/CryptoZombies/contracts/zombiehelper.sol",
  "compiler": {
    "name": "solc",
    "version": "0.8.13+commit.abaa5c0e.Emscripten.clang"
  },
  "schemaVersion": "3.4.16",
  "updatedAt": "2023-10-10T14:04:59.161Z",
  "devdoc": {
    "kind": "dev",
    "methods": {
      "isOwner()": {
        "returns": {
          "_0": "true if `msg.sender` is the owner of the contract."
        }
      },
      "owner()": {
        "returns": {
          "_0": "the address of the owner."
        }
      },
      "renounceOwnership()": {
        "details": "Allows the current owner to relinquish control of the contract."
      },
      "transferOwnership(address)": {
        "details": "Allows the current owner to transfer control of the contract to a newOwner.",
        "params": {
          "newOwner": "The address to transfer ownership to."
        }
      }
    },
    "version": 1
  },
  "userdoc": {
    "kind": "user",
    "methods": {
      "renounceOwnership()": {
        "notice": "Renouncing to ownership will leave the contract without an owner. It will not be possible to call the functions with the `onlyOwner` modifier anymore."
      }
    },
    "version": 1
  }
}