{
  "contractName": "ZombieOwnership",
  "abi": [
    {
      "anonymous": false,
      "inputs": [
        {
          "indexed": true,
          "internalType": "address",
          "name": "_owner",
          "type": "address"
        },
        {
          "indexed": true,
          "internalType": "address",
          "name": "_approved",
          "type": "address"
        },
        {
          "indexed": true,
          "internalType": "uint256",
          "name": "_tokenId",
          "type": "uint256"
        }
      ],
      "name": "Approval",
      "type": "event"
    },
    {
      "anonymous": false,
      "inputs": [
        {
          "indexed": false,
          "internalType": "uint256",
          "name": "zombieId",
          "type": "uint256"
        },
        {
          "indexed": false,
          "internalType": "string",
          "name": "name",
          "type": "string"
        },
        {
          "indexed": false,
          "internalType": "uint256",
          "name": "dna",
          "type": "uint256"
        }
      ],
      "name": "NewZombie",
      "type": "event"
    },
    {
      "anonymous": false,
      "inputs": [
        {
          "indexed": true,
          "internalType": "address",
          "name": "previousOwner",
          "type": "address"
        },
        {
          "indexed": true,
          "internalType": "address",
          "name": "newOwner",
          "type": "address"
        }
      ],
      "name": "OwnershipTransferred",
      "type": "event"
    },
    {
      "anonymous": false,
      "inputs": [
        {
          "indexed": true,
          "internalType": "address",
          "name": "_from",
          "type": "address"
        },
        {
          "indexed": true,
          "internalType": "address",
          "name": "_to",
          "type": "address"
        },
        {
          "indexed": true,
          "internalType": "uint256",
          "name": "_tokenId",
          "type": "uint256"
        }
      ],
      "name": "Transfer",
      "type": "event"
    },
    {
      "inputs": [
        {
          "internalType": "uint256",
          "name": "_zombieId",
          "type": "uint256"
        },
        {
          "internalType": "uint256",
          "name": "_targetId",
          "type": "uint256"
        }
      ],
      "name": "attack",
      "outputs": [],
      "stateMutability": "nonpayable",
      "type": "function"
    },
    {
      "inputs": [
        {
          "internalType": "uint256",
          "name": "_zombieId",
          "type": "uint256"
        },
        {
          "internalType": "uint256",
          "name": "_newDna",
          "type": "uint256"
        }
      ],
      "name": "changeDna",
      "outputs": [],
      "stateMutability": "nonpayable",
      "type": "function"
    },
    {
      "inputs": [
        {
          "internalType": "uint256",
          "name": "_zombieId",
          "type": "uint256"
        },
        {
          "internalType": "string",
          "name": "_newName",
          "type": "string"
        }
      ],
      "name": "changeName",
      "outputs": [],
      "stateMutability": "nonpayable",
      "type": "function"
    },
    {
      "inputs": [
        {
          "internalType": "string",
          "name": "_name",
          "type": "string"
        }
      ],
      "name": "createRandomZombie",
      "outputs": [],
      "stateMutability": "nonpayable",
      "type": "function"
    },
    {
      "inputs": [
        {
          "internalType": "uint256",
          "name": "_zombieId",
          "type": "uint256"
        },
        {
          "internalType": "uint256",
          "name": "_kittyId",
          "type": "uint256"
        }
      ],
      "name": "feedOnKitty",
      "outputs": [],
      "stateMutability": "nonpayable",
      "type": "function"
    },
    {
      "inputs": [
        {
          "internalType": "address",
          "name": "_owner",
          "type": "address"
        }
      ],
      "name": "getZombiesByOwner",
      "outputs": [
        {
          "internalType": "uint256[]",
          "name": "",
          "type": "uint256[]"
        }
      ],
      "stateMutability": "view",
      "type": "function",
      "constant": true
    },
    {
      "inputs": [],
      "name": "isOwner",
      "outputs": [
        {
          "internalType": "bool",
          "name": "",
          "type": "bool"
        }
      ],
      "stateMutability": "view",
      "type": "function",
      "constant": true
    },
    {
      "inputs": [
        {
          "internalType": "uint256",
          "name": "_zombieId",
          "type": "uint256"
        }
      ],
      "name": "levelUp",
      "outputs": [],
      "stateMutability": "payable",
      "type": "function",
      "payable": true
    },
    {
      "inputs": [],
      "name": "owner",
      "outputs": [
        {
          "internalType": "address",
          "name": "",
          "type": "address"
        }
      ],
      "stateMutability": "view",
      "type": "function",
      "constant": true
    },
    {
      "inputs": [],
      "name": "renounceOwnership",
      "outputs": [],
      "stateMutability": "nonpayable",
      "type": "function"
    },
    {
      "inputs": [
        {
          "internalType": "address",
          "name": "_address",
          "type": "address"
        }
      ],
      "name": "setKittyContractAddress",
      "outputs": [],
      "stateMutability": "nonpayable",
      "type": "function"
    },
    {
      "inputs": [
        {
          "internalType": "uint256",
          "name": "_fee",
          "type": "uint256"
        }
      ],
      "name": "setLevelUpFee",
      "outputs": [],
      "stateMutability": "nonpayable",
      "type": "function"
    },
    {
      "inputs": [
        {
          "internalType": "address",
          "name": "newOwner",
          "type": "address"
        }
      ],
      "name": "transferOwnership",
      "outputs": [],
      "stateMutability": "nonpayable",
      "type": "function"
    },
    {
      "inputs": [],
      "name": "withdraw",
      "outputs": [],
      "stateMutability": "nonpayable",
      "type": "function"
    },
    {
      "inputs": [
        {
          "internalType": "uint256",
          "name": "",
          "type": "uint256"
        }
      ],
      "name": "zombieToOwner",
      "outputs": [
        {
          "internalType": "address",
          "name": "",
          "type": "address"
        }
      ],
      "stateMutability": "view",
      "type": "function",
      "constant": true
    },
    {
      "inputs": [
        {
          "internalType": "uint256",
          "name": "",
          "type": "uint256"
        }
      ],
      "name": "zombies",
      "outputs": [
        {
          "internalType": "string",
          "name": "name",
          "type": "string"
        },
        {
          "internalType": "uint256",
          "name": "dna",
          "type": "uint256"
        },
        {
          "internalType": "uint32",
          "name": "level",
          "type": "uint32"
        },
        {
          "internalType": "uint32",
          "name": "readyTime",
          "type": "uint32"
        },
        {
          "internalType": "uint16",
          "name": "winCount",
          "type": "uint16"
        },
        {
          "internalType": "uint16",
          "name": "lossCount",
          "type": "uint16"
        }
      ],
      "stateMutability": "view",
      "type": "function",
      "constant": true
    },
    {
      "inputs": [
        {
          "internalType": "address",
          "name": "_owner",
          "type": "address"
        }
      ],
      "name": "balanceOf",
      "outputs": [
        {
          "internalType": "uint256",
          "name": "",
          "type": "uint256"
        }
      ],
      "stateMutability": "view",
      "type": "function",
      "constant": true
    },
    {
      "inputs": [
        {
          "internalType": "uint256",
          "name": "_tokenId",
          "type": "uint256"
        }
      ],
      "name": "ownerOf",
      "outputs": [
        {
          "internalType": "address",
          "name": "",
          "type": "address"
        }
      ],
      "stateMutability": "view",
      "type": "function",
      "constant": true
    },
    {
      "inputs": [
        {
          "internalType": "address",
          "name": "_from",
          "type": "address"
        },
        {
          "internalType": "address",
          "name": "_to",
          "type": "address"
        },
        {
          "internalType": "uint256",
          "name": "_tokenId",
          "type": "uint256"
        }
      ],
      "name": "transferFrom",
      "outputs": [],
      "stateMutability": "payable",
      "type": "function",
      "payable": true
    },
    {
      "inputs": [
        {
          "internalType": "address",
          "name": "_approved",
          "type": "address"
        },
        {
          "internalType": "uint256",
          "name": "_tokenId",
          "type": "uint256"
        }
      ],
      "name": "approve",
      "outputs": [],
      "stateMutability": "payable",
      "type": "function",
      "payable": true
    }
  ],
  "bytecode": "0x60806040526010600155600154600a6200001a919062000295565b6002556201518060035566038d7ea4c6800060085560006009556046600a553480156200004657600080fd5b50336000806101000a81548173ffffffffffffffffffffffffffffffffffffffff021916908373ffffffffffffffffffffffffffffffffffffffff16021790555060008054906101000a900473ffffffffffffffffffffffffffffffffffffffff1673ffffffffffffffffffffffffffffffffffffffff16600073ffffffffffffffffffffffffffffffffffffffff167f8be0079c531659141344cd1fd0a4f28419497f9722a3daafe3b4186f6b6457e060405160405180910390a3620002e6565b7f4e487b7100000000000000000000000000000000000000000000000000000000600052601160045260246000fd5b60008160011c9050919050565b6000808291508390505b600185111562000196578086048111156200016e576200016d62000108565b5b60018516156200017e5780820291505b80810290506200018e8562000137565b94506200014e565b94509492505050565b600082620001b1576001905062000284565b81620001c1576000905062000284565b8160018114620001da5760028114620001e5576200021b565b600191505062000284565b60ff841115620001fa57620001f962000108565b5b8360020a91508482111562000214576200021362000108565b5b5062000284565b5060208310610133831016604e8410600b8410161715620002555782820a9050838111156200024f576200024e62000108565b5b62000284565b62000264848484600162000144565b925090508184048111156200027e576200027d62000108565b5b81810290505b9392505050565b6000819050919050565b6000620002a2826200028b565b9150620002af836200028b565b9250620002de7fffffffffffffffffffffffffffffffffffffffffffffffffffffffffffffffff84846200019f565b905092915050565b61277a80620002f66000396000f3fe60806040526004361061011f5760003560e01c80636352211e116100a05780638f32d59b116100645780638f32d59b146103ab578063c39cbef1146103d6578063ccf670f8146103ff578063e1fa763814610428578063f2fde38b146104515761011f565b80636352211e146102c657806370a0823114610303578063715018a6146103405780637bff0a01146103575780638da5cb5b146103805761011f565b80633ccfd60b116100e75780633ccfd60b146101e35780634412e104146101fa578063528b7b8f146102375780635f4623f1146102745780635faf28801461029d5761011f565b8063095ea7b3146101245780630ce90ec21461014057806317a7f4cc1461015c5780632052465e1461018557806323b872dd146101c7575b600080fd5b61013e60048036038101906101399190611be7565b61047a565b005b61015a60048036038101906101559190611c27565b610598565b005b34801561016857600080fd5b50610183600480360381019061017e9190611c54565b61062e565b005b34801561019157600080fd5b506101ac60048036038101906101a79190611c27565b61074c565b6040516101be96959493929190611d78565b60405180910390f35b6101e160048036038101906101dc9190611de0565b61085c565b005b3480156101ef57600080fd5b506101f8610940565b005b34801561020657600080fd5b50610221600480360381019061021c9190611e33565b6109a7565b60405161022e9190611f1e565b60405180910390f35b34801561024357600080fd5b5061025e60048036038101906102599190611c27565b610af9565b60405161026b9190611f4f565b60405180910390f35b34801561028057600080fd5b5061029b60048036038101906102969190611e33565b610b2c565b005b3480156102a957600080fd5b506102c460048036038101906102bf9190611c54565b610b81565b005b3480156102d257600080fd5b506102ed60048036038101906102e89190611c27565b610c69565b6040516102fa9190611f4f565b60405180910390f35b34801561030f57600080fd5b5061032a60048036038101906103259190611e33565b610ca6565b6040516103379190611f6a565b60405180910390f35b34801561034c57600080fd5b50610355610cef565b005b34801561036357600080fd5b5061037e600480360381019061037991906120ba565b610dbe565b005b34801561038c57600080fd5b50610395610e3f565b6040516103a29190611f4f565b60405180910390f35b3480156103b757600080fd5b506103c0610e68565b6040516103cd919061211e565b60405180910390f35b3480156103e257600080fd5b506103fd60048036038101906103f89190612199565b610ebf565b005b34801561040b57600080fd5b5061042660048036038101906104219190611c27565b610fb3565b005b34801561043457600080fd5b5061044f600480360381019061044a9190611c54565b610fce565b005b34801561045d57600080fd5b5061047860048036038101906104739190611e33565b61122f565b005b806005600082815260200190815260200160002060009054906101000a900473ffffffffffffffffffffffffffffffffffffffff1673ffffffffffffffffffffffffffffffffffffffff163373ffffffffffffffffffffffffffffffffffffffff16146104e657600080fd5b82600b600084815260200190815260200160002060006101000a81548173ffffffffffffffffffffffffffffffffffffffff021916908373ffffffffffffffffffffffffffffffffffffffff160217905550818373ffffffffffffffffffffffffffffffffffffffff163373ffffffffffffffffffffffffffffffffffffffff167f8c5be1e5ebec7d5bd14f71427d1e84f3dd0314c0f7b2291e5b200ac8c7c3b92560405160405180910390a4505050565b60085434146105a657600080fd5b6001600482815481106105bc576105bb6121f9565b5b906000526020600020906003020160020160009054906101000a900463ffffffff166105e89190612257565b600482815481106105fc576105fb6121f9565b5b906000526020600020906003020160020160006101000a81548163ffffffff021916908363ffffffff16021790555050565b6000600760009054906101000a900473ffffffffffffffffffffffffffffffffffffffff1673ffffffffffffffffffffffffffffffffffffffff1663e98b7f4d836040518263ffffffff1660e01b815260040161068b9190611f6a565b61014060405180830381865afa1580156106a9573d6000803e3d6000fd5b505050506040513d601f19601f820116820180604052508101906106cd91906122d2565b9091929394959697985090919293949596975090919293949596509091929394955090919293945090919293509091925090915090508091505061074783826040518060400160405280600581526020017f6b6974747900000000000000000000000000000000000000000000000000000081525061124c565b505050565b6004818154811061075c57600080fd5b906000526020600020906003020160009150905080600001805461077f906123e0565b80601f01602080910402602001604051908101604052809291908181526020018280546107ab906123e0565b80156107f85780601f106107cd576101008083540402835291602001916107f8565b820191906000526020600020905b8154815290600101906020018083116107db57829003601f168201915b5050505050908060010154908060020160009054906101000a900463ffffffff16908060020160049054906101000a900463ffffffff16908060020160089054906101000a900461ffff169080600201600a9054906101000a900461ffff16905086565b3373ffffffffffffffffffffffffffffffffffffffff166005600083815260200190815260200160002060009054906101000a900473ffffffffffffffffffffffffffffffffffffffff1673ffffffffffffffffffffffffffffffffffffffff16148061092757503373ffffffffffffffffffffffffffffffffffffffff16600b600083815260200190815260200160002060009054906101000a900473ffffffffffffffffffffffffffffffffffffffff1673ffffffffffffffffffffffffffffffffffffffff16145b61093057600080fd5b61093b8383836113e8565b505050565b610948610e68565b61095157600080fd5b600061095b610e3f565b90508073ffffffffffffffffffffffffffffffffffffffff166108fc479081150290604051600060405180830381858888f193505050501580156109a3573d6000803e3d6000fd5b5050565b60606000600660008473ffffffffffffffffffffffffffffffffffffffff1673ffffffffffffffffffffffffffffffffffffffff1681526020019081526020016000205467ffffffffffffffff811115610a0457610a03611f8f565b5b604051908082528060200260200182016040528015610a325781602001602082028036833780820191505090505b5090506000805b600480549050811015610aee578473ffffffffffffffffffffffffffffffffffffffff166005600083815260200190815260200160002060009054906101000a900473ffffffffffffffffffffffffffffffffffffffff1673ffffffffffffffffffffffffffffffffffffffff1603610adb5780838381518110610ac057610abf6121f9565b5b6020026020010181815250508180610ad790612411565b9250505b8080610ae690612411565b915050610a39565b508192505050919050565b60056020528060005260406000206000915054906101000a900473ffffffffffffffffffffffffffffffffffffffff1681565b610b34610e68565b610b3d57600080fd5b80600760006101000a81548173ffffffffffffffffffffffffffffffffffffffff021916908373ffffffffffffffffffffffffffffffffffffffff16021790555050565b6014828160048281548110610b9957610b986121f9565b5b906000526020600020906003020160020160009054906101000a900463ffffffff1663ffffffff161015610bcc57600080fd5b836005600082815260200190815260200160002060009054906101000a900473ffffffffffffffffffffffffffffffffffffffff1673ffffffffffffffffffffffffffffffffffffffff163373ffffffffffffffffffffffffffffffffffffffff1614610c3857600080fd5b8360048681548110610c4d57610c4c6121f9565b5b9060005260206000209060030201600101819055505050505050565b60006005600083815260200190815260200160002060009054906101000a900473ffffffffffffffffffffffffffffffffffffffff169050919050565b6000600660008373ffffffffffffffffffffffffffffffffffffffff1673ffffffffffffffffffffffffffffffffffffffff168152602001908152602001600020549050919050565b610cf7610e68565b610d0057600080fd5b600073ffffffffffffffffffffffffffffffffffffffff1660008054906101000a900473ffffffffffffffffffffffffffffffffffffffff1673ffffffffffffffffffffffffffffffffffffffff167f8be0079c531659141344cd1fd0a4f28419497f9722a3daafe3b4186f6b6457e060405160405180910390a360008060006101000a81548173ffffffffffffffffffffffffffffffffffffffff021916908373ffffffffffffffffffffffffffffffffffffffff160217905550565b6000600660003373ffffffffffffffffffffffffffffffffffffffff1673ffffffffffffffffffffffffffffffffffffffff1681526020019081526020016000205414610e0a57600080fd5b6000610e15826115b8565b9050606481610e249190612488565b81610e2f91906124b9565b9050610e3b82826115fd565b5050565b60008060009054906101000a900473ffffffffffffffffffffffffffffffffffffffff16905090565b60008060009054906101000a900473ffffffffffffffffffffffffffffffffffffffff1673ffffffffffffffffffffffffffffffffffffffff163373ffffffffffffffffffffffffffffffffffffffff1614905090565b6002838160048281548110610ed757610ed66121f9565b5b906000526020600020906003020160020160009054906101000a900463ffffffff1663ffffffff161015610f0a57600080fd5b846005600082815260200190815260200160002060009054906101000a900473ffffffffffffffffffffffffffffffffffffffff1673ffffffffffffffffffffffffffffffffffffffff163373ffffffffffffffffffffffffffffffffffffffff1614610f7657600080fd5b848460048881548110610f8c57610f8b6121f9565b5b90600052602060002090600302016000019190610faa929190611a16565b50505050505050565b610fbb610e68565b610fc457600080fd5b8060088190555050565b816005600082815260200190815260200160002060009054906101000a900473ffffffffffffffffffffffffffffffffffffffff1673ffffffffffffffffffffffffffffffffffffffff163373ffffffffffffffffffffffffffffffffffffffff161461103a57600080fd5b6000600484815481106110505761104f6121f9565b5b90600052602060002090600302019050600060048481548110611076576110756121f9565b5b906000526020600020906003020190506000611092606461186d565b9050600a5481116111a35760018360020160089054906101000a900461ffff166110bc91906124ed565b8360020160086101000a81548161ffff021916908361ffff16021790555060018360020160009054906101000a900463ffffffff166110fb9190612257565b8360020160006101000a81548163ffffffff021916908363ffffffff160217905550600182600201600a9054906101000a900461ffff1661113c91906124ed565b82600201600a6101000a81548161ffff021916908361ffff16021790555061119e8683600101546040518060400160405280600681526020017f7a6f6d626965000000000000000000000000000000000000000000000000000081525061124c565b611227565b600183600201600a9054906101000a900461ffff166111c291906124ed565b83600201600a6101000a81548161ffff021916908361ffff16021790555060018260020160089054906101000a900461ffff166111ff91906124ed565b8260020160086101000a81548161ffff021916908361ffff160217905550611226836118c6565b5b505050505050565b611237610e68565b61124057600080fd5b611249816118f9565b50565b826005600082815260200190815260200160002060009054906101000a900473ffffffffffffffffffffffffffffffffffffffff1673ffffffffffffffffffffffffffffffffffffffff163373ffffffffffffffffffffffffffffffffffffffff16146112b857600080fd5b6000600485815481106112ce576112cd6121f9565b5b906000526020600020906003020190506112e7816119ef565b6112f057600080fd5b600254846112fe9190612488565b9350600060028583600101546113149190612525565b61131e919061257b565b905060405160200161132f90612603565b60405160208183030381529060405280519060200120846040516020016113569190612649565b60405160208183030381529060405280519060200120036113985760636064826113809190612488565b8261138b91906124b9565b6113959190612525565b90505b6113d76040518060400160405280600681526020017f4e6f4e616d650000000000000000000000000000000000000000000000000000815250826115fd565b6113e0826118c6565b505050505050565b6001600660008473ffffffffffffffffffffffffffffffffffffffff1673ffffffffffffffffffffffffffffffffffffffff168152602001908152602001600020546114349190612525565b600660008473ffffffffffffffffffffffffffffffffffffffff1673ffffffffffffffffffffffffffffffffffffffff168152602001908152602001600020819055506001600660003373ffffffffffffffffffffffffffffffffffffffff1673ffffffffffffffffffffffffffffffffffffffff168152602001908152602001600020546114c391906124b9565b600660003373ffffffffffffffffffffffffffffffffffffffff1673ffffffffffffffffffffffffffffffffffffffff16815260200190815260200160002081905550816005600083815260200190815260200160002060006101000a81548173ffffffffffffffffffffffffffffffffffffffff021916908373ffffffffffffffffffffffffffffffffffffffff160217905550808273ffffffffffffffffffffffffffffffffffffffff168473ffffffffffffffffffffffffffffffffffffffff167fddf252ad1be2c89b69c2b068fc378daa952ba7f163c4a11628f55a4df523b3ef60405160405180910390a4505050565b600080826040516020016115cc9190612649565b6040516020818303038152906040528051906020012060001c9050600254816115f59190612488565b915050919050565b60046040518060c00160405280848152602001838152602001600163ffffffff168152602001600354426116319190612525565b63ffffffff168152602001600061ffff168152602001600061ffff1681525090806001815401808255809150506001900390600052602060002090600302016000909190919091506000820151816000019080519060200190611695929190611a9c565b506020820151816001015560408201518160020160006101000a81548163ffffffff021916908363ffffffff16021790555060608201518160020160046101000a81548163ffffffff021916908363ffffffff16021790555060808201518160020160086101000a81548161ffff021916908361ffff16021790555060a082015181600201600a6101000a81548161ffff021916908361ffff16021790555050506000600160048054905061174a91906124b9565b9050336005600083815260200190815260200160002060006101000a81548173ffffffffffffffffffffffffffffffffffffffff021916908373ffffffffffffffffffffffffffffffffffffffff1602179055506001600660003373ffffffffffffffffffffffffffffffffffffffff1673ffffffffffffffffffffffffffffffffffffffff168152602001908152602001600020546117ea9190612525565b600660003373ffffffffffffffffffffffffffffffffffffffff1673ffffffffffffffffffffffffffffffffffffffff168152602001908152602001600020819055507f88f026aacbbecc90c18411df4b1185fd8d9be2470f1962f192bf84a27d0704b781848460405161186093929190612660565b60405180910390a1505050565b6000600160095461187e9190612525565b60098190555081423360095460405160200161189c93929190612707565b6040516020818303038152906040528051906020012060001c6118bf9190612488565b9050919050565b600354426118d49190612525565b8160020160046101000a81548163ffffffff021916908363ffffffff16021790555050565b600073ffffffffffffffffffffffffffffffffffffffff168173ffffffffffffffffffffffffffffffffffffffff160361193257600080fd5b8073ffffffffffffffffffffffffffffffffffffffff1660008054906101000a900473ffffffffffffffffffffffffffffffffffffffff1673ffffffffffffffffffffffffffffffffffffffff167f8be0079c531659141344cd1fd0a4f28419497f9722a3daafe3b4186f6b6457e060405160405180910390a3806000806101000a81548173ffffffffffffffffffffffffffffffffffffffff021916908373ffffffffffffffffffffffffffffffffffffffff16021790555050565b6000428260020160049054906101000a900463ffffffff1663ffffffff1611159050919050565b828054611a22906123e0565b90600052602060002090601f016020900481019282611a445760008555611a8b565b82601f10611a5d57803560ff1916838001178555611a8b565b82800160010185558215611a8b579182015b82811115611a8a578235825591602001919060010190611a6f565b5b509050611a989190611b22565b5090565b828054611aa8906123e0565b90600052602060002090601f016020900481019282611aca5760008555611b11565b82601f10611ae357805160ff1916838001178555611b11565b82800160010185558215611b11579182015b82811115611b10578251825591602001919060010190611af5565b5b509050611b1e9190611b22565b5090565b5b80821115611b3b576000816000905550600101611b23565b5090565b6000604051905090565b600080fd5b600080fd5b600073ffffffffffffffffffffffffffffffffffffffff82169050919050565b6000611b7e82611b53565b9050919050565b611b8e81611b73565b8114611b9957600080fd5b50565b600081359050611bab81611b85565b92915050565b6000819050919050565b611bc481611bb1565b8114611bcf57600080fd5b50565b600081359050611be181611bbb565b92915050565b60008060408385031215611bfe57611bfd611b49565b5b6000611c0c85828601611b9c565b9250506020611c1d85828601611bd2565b9150509250929050565b600060208284031215611c3d57611c3c611b49565b5b6000611c4b84828501611bd2565b91505092915050565b60008060408385031215611c6b57611c6a611b49565b5b6000611c7985828601611bd2565b9250506020611c8a85828601611bd2565b9150509250929050565b600081519050919050565b600082825260208201905092915050565b60005b83811015611cce578082015181840152602081019050611cb3565b83811115611cdd576000848401525b50505050565b6000601f19601f8301169050919050565b6000611cff82611c94565b611d098185611c9f565b9350611d19818560208601611cb0565b611d2281611ce3565b840191505092915050565b611d3681611bb1565b82525050565b600063ffffffff82169050919050565b611d5581611d3c565b82525050565b600061ffff82169050919050565b611d7281611d5b565b82525050565b600060c0820190508181036000830152611d928189611cf4565b9050611da16020830188611d2d565b611dae6040830187611d4c565b611dbb6060830186611d4c565b611dc86080830185611d69565b611dd560a0830184611d69565b979650505050505050565b600080600060608486031215611df957611df8611b49565b5b6000611e0786828701611b9c565b9350506020611e1886828701611b9c565b9250506040611e2986828701611bd2565b9150509250925092565b600060208284031215611e4957611e48611b49565b5b6000611e5784828501611b9c565b91505092915050565b600081519050919050565b600082825260208201905092915050565b6000819050602082019050919050565b611e9581611bb1565b82525050565b6000611ea78383611e8c565b60208301905092915050565b6000602082019050919050565b6000611ecb82611e60565b611ed58185611e6b565b9350611ee083611e7c565b8060005b83811015611f11578151611ef88882611e9b565b9750611f0383611eb3565b925050600181019050611ee4565b5085935050505092915050565b60006020820190508181036000830152611f388184611ec0565b905092915050565b611f4981611b73565b82525050565b6000602082019050611f646000830184611f40565b92915050565b6000602082019050611f7f6000830184611d2d565b92915050565b600080fd5b600080fd5b7f4e487b7100000000000000000000000000000000000000000000000000000000600052604160045260246000fd5b611fc782611ce3565b810181811067ffffffffffffffff82111715611fe657611fe5611f8f565b5b80604052505050565b6000611ff9611b3f565b90506120058282611fbe565b919050565b600067ffffffffffffffff82111561202557612024611f8f565b5b61202e82611ce3565b9050602081019050919050565b82818337600083830152505050565b600061205d6120588461200a565b611fef565b90508281526020810184848401111561207957612078611f8a565b5b61208484828561203b565b509392505050565b600082601f8301126120a1576120a0611f85565b5b81356120b184826020860161204a565b91505092915050565b6000602082840312156120d0576120cf611b49565b5b600082013567ffffffffffffffff8111156120ee576120ed611b4e565b5b6120fa8482850161208c565b91505092915050565b60008115159050919050565b61211881612103565b82525050565b6000602082019050612133600083018461210f565b92915050565b600080fd5b600080fd5b60008083601f84011261215957612158611f85565b5b8235905067ffffffffffffffff81111561217657612175612139565b5b6020830191508360018202830111156121925761219161213e565b5b9250929050565b6000806000604084860312156121b2576121b1611b49565b5b60006121c086828701611bd2565b935050602084013567ffffffffffffffff8111156121e1576121e0611b4e565b5b6121ed86828701612143565b92509250509250925092565b7f4e487b7100000000000000000000000000000000000000000000000000000000600052603260045260246000fd5b7f4e487b7100000000000000000000000000000000000000000000000000000000600052601160045260246000fd5b600061226282611d3c565b915061226d83611d3c565b92508263ffffffff0382111561228657612285612228565b5b828201905092915050565b61229a81612103565b81146122a557600080fd5b50565b6000815190506122b781612291565b92915050565b6000815190506122cc81611bbb565b92915050565b6000806000806000806000806000806101408b8d0312156122f6576122f5611b49565b5b60006123048d828e016122a8565b9a505060206123158d828e016122a8565b99505060406123268d828e016122bd565b98505060606123378d828e016122bd565b97505060806123488d828e016122bd565b96505060a06123598d828e016122bd565b95505060c061236a8d828e016122bd565b94505060e061237b8d828e016122bd565b93505061010061238d8d828e016122bd565b92505061012061239f8d828e016122bd565b9150509295989b9194979a5092959850565b7f4e487b7100000000000000000000000000000000000000000000000000000000600052602260045260246000fd5b600060028204905060018216806123f857607f821691505b60208210810361240b5761240a6123b1565b5b50919050565b600061241c82611bb1565b91507fffffffffffffffffffffffffffffffffffffffffffffffffffffffffffffffff820361244e5761244d612228565b5b600182019050919050565b7f4e487b7100000000000000000000000000000000000000000000000000000000600052601260045260246000fd5b600061249382611bb1565b915061249e83611bb1565b9250826124ae576124ad612459565b5b828206905092915050565b60006124c482611bb1565b91506124cf83611bb1565b9250828210156124e2576124e1612228565b5b828203905092915050565b60006124f882611d5b565b915061250383611d5b565b92508261ffff0382111561251a57612519612228565b5b828201905092915050565b600061253082611bb1565b915061253b83611bb1565b9250827fffffffffffffffffffffffffffffffffffffffffffffffffffffffffffffffff038211156125705761256f612228565b5b828201905092915050565b600061258682611bb1565b915061259183611bb1565b9250826125a1576125a0612459565b5b828204905092915050565b600081905092915050565b7f6b69747479000000000000000000000000000000000000000000000000000000600082015250565b60006125ed6005836125ac565b91506125f8826125b7565b600582019050919050565b600061260e826125e0565b9150819050919050565b600061262382611c94565b61262d81856125ac565b935061263d818560208601611cb0565b80840191505092915050565b60006126558284612618565b915081905092915050565b60006060820190506126756000830186611d2d565b81810360208301526126878185611cf4565b90506126966040830184611d2d565b949350505050565b6000819050919050565b6126b96126b482611bb1565b61269e565b82525050565b60008160601b9050919050565b60006126d7826126bf565b9050919050565b60006126e9826126cc565b9050919050565b6127016126fc82611b73565b6126de565b82525050565b600061271382866126a8565b60208201915061272382856126f0565b60148201915061273382846126a8565b60208201915081905094935050505056fea26469706673582212204678ed7c0a9515c5cc1f64fafd2c2ba8f34ba2f0ba24b5ed8c8e1a9ca7c263c264736f6c634300080d0033",
  "immutableReferences": {},
  "source": "// SPDX-License-Identifier: MIT\npragma solidity ^0.8.13;\n\nimport \"./zombieattack.sol\";\nimport \"./erc721.sol\";\n\ncontract ZombieOwnership is ZombieAttack, ERC721 {\n\n  mapping (uint => address) zombieApprovals;\n\n  function balanceOf(address _owner) override external view returns (uint256) {\n    return ownerZombieCount[_owner];\n  }\n\n  function ownerOf(uint256 _tokenId) override external view returns (address) {\n    return zombieToOwner[_tokenId];\n  }\n\n  function _transfer(address _from, address _to, uint256 _tokenId) private {\n    ownerZombieCount[_to] = ownerZombieCount[_to] + 1;\n    ownerZombieCount[msg.sender] = ownerZombieCount[msg.sender] - 1;\n    zombieToOwner[_tokenId] = _to;\n    emit Transfer(_from, _to, _tokenId);\n  }\n\n  function transferFrom(address _from, address _to, uint256 _tokenId) override external payable {\n      require (zombieToOwner[_tokenId] == msg.sender || zombieApprovals[_tokenId] == msg.sender);\n      _transfer(_from, _to, _tokenId);\n    }\n\n  function approve(address _approved, uint256 _tokenId) override external payable onlyOwnerOf(_tokenId) {\n      zombieApprovals[_tokenId] = _approved;\n      emit Approval(msg.sender, _approved, _tokenId);\n    }\n\n}\n",
  "sourcePath": "/Users/agnieszkaskrobot/Desktop/projects/CryptoZombies/contracts/zombieownership.sol",
  "compiler": {
    "name": "solc",
    "version": "0.8.13+commit.abaa5c0e.Emscripten.clang"
  },
  "schemaVersion": "3.4.16",
  "updatedAt": "2023-10-10T14:06:41.322Z",
  "networkType": "ethereum",
  "devdoc": {
    "kind": "dev",
    "methods": {
      "isOwner()": {
        "returns": {
          "_0": "true if `msg.sender` is the owner of the contract."
        }
      },
      "owner()": {
        "returns": {
          "_0": "the address of the owner."
        }
      },
      "renounceOwnership()": {
        "details": "Allows the current owner to relinquish control of the contract."
      },
      "transferOwnership(address)": {
        "details": "Allows the current owner to transfer control of the contract to a newOwner.",
        "params": {
          "newOwner": "The address to transfer ownership to."
        }
      }
    },
    "version": 1
  },
  "userdoc": {
    "kind": "user",
    "methods": {
      "renounceOwnership()": {
        "notice": "Renouncing to ownership will leave the contract without an owner. It will not be possible to call the functions with the `onlyOwner` modifier anymore."
      }
    },
    "version": 1
  }
}